{
	"data": {
		"bytecode": {
			"linkReferences": {},
			"object": "6080604052348015600e575f80fd5b50610fcf8061001c5f395ff3fe608060405234801561000f575f80fd5b5060043610610060575f3560e01c80630aae162e146100645780631922701e146100945780632d83e6b1146100b0578063760b1eee146100e05780638e068eb014610116578063c8cdac5c14610146575b5f80fd5b61007e60048036038101906100799190610b09565b610162565b60405161008b9190610b4c565b60405180910390f35b6100ae60048036038101906100a99190610b8f565b6102eb565b005b6100ca60048036038101906100c59190610b09565b6104bc565b6040516100d79190610b4c565b60405180910390f35b6100fa60048036038101906100f59190610b09565b610640565b60405161010d9796959493929190610bdc565b60405180910390f35b610130600480360381019061012b9190610b09565b61069c565b60405161013d9190610b4c565b60405180910390f35b610160600480360381019061015b9190610c49565b610835565b005b5f805f808473ffffffffffffffffffffffffffffffffffffffff1673ffffffffffffffffffffffffffffffffffffffff1681526020019081526020015f206040518060e00160405290815f82015f9054906101000a900473ffffffffffffffffffffffffffffffffffffffff1673ffffffffffffffffffffffffffffffffffffffff1673ffffffffffffffffffffffffffffffffffffffff168152602001600182015481526020016002820154815260200160038201548152602001600482015481526020016005820154815260200160068201548152505090505f73ffffffffffffffffffffffffffffffffffffffff16815f015173ffffffffffffffffffffffffffffffffffffffff16036102ae576040517f08c379a00000000000000000000000000000000000000000000000000000000081526004016102a590610d2c565b60405180910390fd5b5f8160600151036102c2575f9150506102e6565b8060600151606482608001516102d89190610d77565b6102e29190610de5565b9150505b919050565b5f805f8473ffffffffffffffffffffffffffffffffffffffff1673ffffffffffffffffffffffffffffffffffffffff1681526020019081526020015f2090505f73ffffffffffffffffffffffffffffffffffffffff16815f015f9054906101000a900473ffffffffffffffffffffffffffffffffffffffff1673ffffffffffffffffffffffffffffffffffffffff16036103ba576040517f08c379a00000000000000000000000000000000000000000000000000000000081526004016103b190610d2c565b60405180910390fd5b5f8210156103fd576040517f08c379a00000000000000000000000000000000000000000000000000000000081526004016103f490610e85565b60405180910390fd5b8181600301819055508273ffffffffffffffffffffffffffffffffffffffff167fa6b582f9fa77f5eb299250871d3b51c8ff3655dd554da3f9abb294b3e92f8e1f8360405161044c9190610b4c565b60405180910390a28060020154816003015411156104b7578273ffffffffffffffffffffffffffffffffffffffff167f74b737e83b985a0afa446389d70cccab99d200a0a63101114130a2a2dfbba91282600301546040516104ae9190610b4c565b60405180910390a25b505050565b5f805f808473ffffffffffffffffffffffffffffffffffffffff1673ffffffffffffffffffffffffffffffffffffffff1681526020019081526020015f206040518060e00160405290815f82015f9054906101000a900473ffffffffffffffffffffffffffffffffffffffff1673ffffffffffffffffffffffffffffffffffffffff1673ffffffffffffffffffffffffffffffffffffffff168152602001600182015481526020016002820154815260200160038201548152602001600482015481526020016005820154815260200160068201548152505090505f73ffffffffffffffffffffffffffffffffffffffff16815f015173ffffffffffffffffffffffffffffffffffffffff1603610608576040517f08c379a00000000000000000000000000000000000000000000000000000000081526004016105ff90610d2c565b60405180910390fd5b6127108160c001518260a0015183606001516106249190610d77565b61062e9190610d77565b6106389190610de5565b915050919050565b5f602052805f5260405f205f91509050805f015f9054906101000a900473ffffffffffffffffffffffffffffffffffffffff16908060010154908060020154908060030154908060040154908060050154908060060154905087565b5f805f808473ffffffffffffffffffffffffffffffffffffffff1673ffffffffffffffffffffffffffffffffffffffff1681526020019081526020015f206040518060e00160405290815f82015f9054906101000a900473ffffffffffffffffffffffffffffffffffffffff1673ffffffffffffffffffffffffffffffffffffffff1673ffffffffffffffffffffffffffffffffffffffff168152602001600182015481526020016002820154815260200160038201548152602001600482015481526020016005820154815260200160068201548152505090505f73ffffffffffffffffffffffffffffffffffffffff16815f015173ffffffffffffffffffffffffffffffffffffffff16036107e8576040517f08c379a00000000000000000000000000000000000000000000000000000000081526004016107df90610d2c565b60405180910390fd5b5f8160400151036107fc575f915050610830565b806020015181604001516108109190610d77565b61271082606001516108229190610d77565b61082c9190610de5565b9150505b919050565b5f73ffffffffffffffffffffffffffffffffffffffff165f808873ffffffffffffffffffffffffffffffffffffffff1673ffffffffffffffffffffffffffffffffffffffff1681526020019081526020015f205f015f9054906101000a900473ffffffffffffffffffffffffffffffffffffffff1673ffffffffffffffffffffffffffffffffffffffff1614610900576040517f08c379a00000000000000000000000000000000000000000000000000000000081526004016108f790610eed565b60405180910390fd5b5f8511801561090e57505f84115b61094d576040517f08c379a000000000000000000000000000000000000000000000000000000000815260040161094490610f7b565b60405180910390fd5b6040518060e001604052808773ffffffffffffffffffffffffffffffffffffffff1681526020018681526020018581526020015f8152602001828152602001848152602001838152505f808873ffffffffffffffffffffffffffffffffffffffff1673ffffffffffffffffffffffffffffffffffffffff1681526020019081526020015f205f820151815f015f6101000a81548173ffffffffffffffffffffffffffffffffffffffff021916908373ffffffffffffffffffffffffffffffffffffffff1602179055506020820151816001015560408201518160020155606082015181600301556080820151816004015560a0820151816005015560c082015181600601559050508573ffffffffffffffffffffffffffffffffffffffff167f747a12c5b34abe212a3a26b67b9a8edf3ceb6bd68207c9f6c11a5161432e161485604051610a9b9190610b4c565b60405180910390a2505050505050565b5f80fd5b5f73ffffffffffffffffffffffffffffffffffffffff82169050919050565b5f610ad882610aaf565b9050919050565b610ae881610ace565b8114610af2575f80fd5b50565b5f81359050610b0381610adf565b92915050565b5f60208284031215610b1e57610b1d610aab565b5b5f610b2b84828501610af5565b91505092915050565b5f819050919050565b610b4681610b34565b82525050565b5f602082019050610b5f5f830184610b3d565b92915050565b610b6e81610b34565b8114610b78575f80fd5b50565b5f81359050610b8981610b65565b92915050565b5f8060408385031215610ba557610ba4610aab565b5b5f610bb285828601610af5565b9250506020610bc385828601610b7b565b9150509250929050565b610bd681610ace565b82525050565b5f60e082019050610bef5f83018a610bcd565b610bfc6020830189610b3d565b610c096040830188610b3d565b610c166060830187610b3d565b610c236080830186610b3d565b610c3060a0830185610b3d565b610c3d60c0830184610b3d565b98975050505050505050565b5f805f805f8060c08789031215610c6357610c62610aab565b5b5f610c7089828a01610af5565b9650506020610c8189828a01610b7b565b9550506040610c9289828a01610b7b565b9450506060610ca389828a01610b7b565b9350506080610cb489828a01610b7b565b92505060a0610cc589828a01610b7b565b9150509295509295509295565b5f82825260208201905092915050565b7f436f6e747265706172746965206e6f6e2074726f7576656500000000000000005f82015250565b5f610d16601883610cd2565b9150610d2182610ce2565b602082019050919050565b5f6020820190508181035f830152610d4381610d0a565b9050919050565b7f4e487b71000000000000000000000000000000000000000000000000000000005f52601160045260245ffd5b5f610d8182610b34565b9150610d8c83610b34565b9250828202610d9a81610b34565b91508282048414831517610db157610db0610d4a565b5b5092915050565b7f4e487b71000000000000000000000000000000000000000000000000000000005f52601260045260245ffd5b5f610def82610b34565b9150610dfa83610b34565b925082610e0a57610e09610db8565b5b828204905092915050565b7f4578706f736974696f6e206e652070657574207061732065747265206e6567615f8201527f7469766500000000000000000000000000000000000000000000000000000000602082015250565b5f610e6f602483610cd2565b9150610e7a82610e15565b604082019050919050565b5f6020820190508181035f830152610e9c81610e63565b9050919050565b7f436f6e7472657061727469652064656a6120656e7265676973747265650000005f82015250565b5f610ed7601d83610cd2565b9150610ee282610ea3565b602082019050919050565b5f6020820190508181035f830152610f0481610ecb565b9050919050565b7f53636f726520646520637265646974206574206c696d69746520646f6976656e5f8201527f74206574726520706f7369746966730000000000000000000000000000000000602082015250565b5f610f65602f83610cd2565b9150610f7082610f0b565b604082019050919050565b5f6020820190508181035f830152610f9281610f59565b905091905056fea26469706673582212208a65ad235cfc711ba59480d2b2cb4540b57a4a25c71ad0296d8dd1f26d46d86364736f6c634300081a0033",
			"opcodes": "PUSH1 0x80 PUSH1 0x40 MSTORE CALLVALUE DUP1 ISZERO PUSH1 0xE JUMPI PUSH0 DUP1 REVERT JUMPDEST POP PUSH2 0xFCF DUP1 PUSH2 0x1C PUSH0 CODECOPY PUSH0 RETURN INVALID PUSH1 0x80 PUSH1 0x40 MSTORE CALLVALUE DUP1 ISZERO PUSH2 0xF JUMPI PUSH0 DUP1 REVERT JUMPDEST POP PUSH1 0x4 CALLDATASIZE LT PUSH2 0x60 JUMPI PUSH0 CALLDATALOAD PUSH1 0xE0 SHR DUP1 PUSH4 0xAAE162E EQ PUSH2 0x64 JUMPI DUP1 PUSH4 0x1922701E EQ PUSH2 0x94 JUMPI DUP1 PUSH4 0x2D83E6B1 EQ PUSH2 0xB0 JUMPI DUP1 PUSH4 0x760B1EEE EQ PUSH2 0xE0 JUMPI DUP1 PUSH4 0x8E068EB0 EQ PUSH2 0x116 JUMPI DUP1 PUSH4 0xC8CDAC5C EQ PUSH2 0x146 JUMPI JUMPDEST PUSH0 DUP1 REVERT JUMPDEST PUSH2 0x7E PUSH1 0x4 DUP1 CALLDATASIZE SUB DUP2 ADD SWAP1 PUSH2 0x79 SWAP2 SWAP1 PUSH2 0xB09 JUMP JUMPDEST PUSH2 0x162 JUMP JUMPDEST PUSH1 0x40 MLOAD PUSH2 0x8B SWAP2 SWAP1 PUSH2 0xB4C JUMP JUMPDEST PUSH1 0x40 MLOAD DUP1 SWAP2 SUB SWAP1 RETURN JUMPDEST PUSH2 0xAE PUSH1 0x4 DUP1 CALLDATASIZE SUB DUP2 ADD SWAP1 PUSH2 0xA9 SWAP2 SWAP1 PUSH2 0xB8F JUMP JUMPDEST PUSH2 0x2EB JUMP JUMPDEST STOP JUMPDEST PUSH2 0xCA PUSH1 0x4 DUP1 CALLDATASIZE SUB DUP2 ADD SWAP1 PUSH2 0xC5 SWAP2 SWAP1 PUSH2 0xB09 JUMP JUMPDEST PUSH2 0x4BC JUMP JUMPDEST PUSH1 0x40 MLOAD PUSH2 0xD7 SWAP2 SWAP1 PUSH2 0xB4C JUMP JUMPDEST PUSH1 0x40 MLOAD DUP1 SWAP2 SUB SWAP1 RETURN JUMPDEST PUSH2 0xFA PUSH1 0x4 DUP1 CALLDATASIZE SUB DUP2 ADD SWAP1 PUSH2 0xF5 SWAP2 SWAP1 PUSH2 0xB09 JUMP JUMPDEST PUSH2 0x640 JUMP JUMPDEST PUSH1 0x40 MLOAD PUSH2 0x10D SWAP8 SWAP7 SWAP6 SWAP5 SWAP4 SWAP3 SWAP2 SWAP1 PUSH2 0xBDC JUMP JUMPDEST PUSH1 0x40 MLOAD DUP1 SWAP2 SUB SWAP1 RETURN JUMPDEST PUSH2 0x130 PUSH1 0x4 DUP1 CALLDATASIZE SUB DUP2 ADD SWAP1 PUSH2 0x12B SWAP2 SWAP1 PUSH2 0xB09 JUMP JUMPDEST PUSH2 0x69C JUMP JUMPDEST PUSH1 0x40 MLOAD PUSH2 0x13D SWAP2 SWAP1 PUSH2 0xB4C JUMP JUMPDEST PUSH1 0x40 MLOAD DUP1 SWAP2 SUB SWAP1 RETURN JUMPDEST PUSH2 0x160 PUSH1 0x4 DUP1 CALLDATASIZE SUB DUP2 ADD SWAP1 PUSH2 0x15B SWAP2 SWAP1 PUSH2 0xC49 JUMP JUMPDEST PUSH2 0x835 JUMP JUMPDEST STOP JUMPDEST PUSH0 DUP1 PUSH0 DUP1 DUP5 PUSH20 0xFFFFFFFFFFFFFFFFFFFFFFFFFFFFFFFFFFFFFFFF AND PUSH20 0xFFFFFFFFFFFFFFFFFFFFFFFFFFFFFFFFFFFFFFFF AND DUP2 MSTORE PUSH1 0x20 ADD SWAP1 DUP2 MSTORE PUSH1 0x20 ADD PUSH0 KECCAK256 PUSH1 0x40 MLOAD DUP1 PUSH1 0xE0 ADD PUSH1 0x40 MSTORE SWAP1 DUP2 PUSH0 DUP3 ADD PUSH0 SWAP1 SLOAD SWAP1 PUSH2 0x100 EXP SWAP1 DIV PUSH20 0xFFFFFFFFFFFFFFFFFFFFFFFFFFFFFFFFFFFFFFFF AND PUSH20 0xFFFFFFFFFFFFFFFFFFFFFFFFFFFFFFFFFFFFFFFF AND PUSH20 0xFFFFFFFFFFFFFFFFFFFFFFFFFFFFFFFFFFFFFFFF AND DUP2 MSTORE PUSH1 0x20 ADD PUSH1 0x1 DUP3 ADD SLOAD DUP2 MSTORE PUSH1 0x20 ADD PUSH1 0x2 DUP3 ADD SLOAD DUP2 MSTORE PUSH1 0x20 ADD PUSH1 0x3 DUP3 ADD SLOAD DUP2 MSTORE PUSH1 0x20 ADD PUSH1 0x4 DUP3 ADD SLOAD DUP2 MSTORE PUSH1 0x20 ADD PUSH1 0x5 DUP3 ADD SLOAD DUP2 MSTORE PUSH1 0x20 ADD PUSH1 0x6 DUP3 ADD SLOAD DUP2 MSTORE POP POP SWAP1 POP PUSH0 PUSH20 0xFFFFFFFFFFFFFFFFFFFFFFFFFFFFFFFFFFFFFFFF AND DUP2 PUSH0 ADD MLOAD PUSH20 0xFFFFFFFFFFFFFFFFFFFFFFFFFFFFFFFFFFFFFFFF AND SUB PUSH2 0x2AE JUMPI PUSH1 0x40 MLOAD PUSH32 0x8C379A000000000000000000000000000000000000000000000000000000000 DUP2 MSTORE PUSH1 0x4 ADD PUSH2 0x2A5 SWAP1 PUSH2 0xD2C JUMP JUMPDEST PUSH1 0x40 MLOAD DUP1 SWAP2 SUB SWAP1 REVERT JUMPDEST PUSH0 DUP2 PUSH1 0x60 ADD MLOAD SUB PUSH2 0x2C2 JUMPI PUSH0 SWAP2 POP POP PUSH2 0x2E6 JUMP JUMPDEST DUP1 PUSH1 0x60 ADD MLOAD PUSH1 0x64 DUP3 PUSH1 0x80 ADD MLOAD PUSH2 0x2D8 SWAP2 SWAP1 PUSH2 0xD77 JUMP JUMPDEST PUSH2 0x2E2 SWAP2 SWAP1 PUSH2 0xDE5 JUMP JUMPDEST SWAP2 POP POP JUMPDEST SWAP2 SWAP1 POP JUMP JUMPDEST PUSH0 DUP1 PUSH0 DUP5 PUSH20 0xFFFFFFFFFFFFFFFFFFFFFFFFFFFFFFFFFFFFFFFF AND PUSH20 0xFFFFFFFFFFFFFFFFFFFFFFFFFFFFFFFFFFFFFFFF AND DUP2 MSTORE PUSH1 0x20 ADD SWAP1 DUP2 MSTORE PUSH1 0x20 ADD PUSH0 KECCAK256 SWAP1 POP PUSH0 PUSH20 0xFFFFFFFFFFFFFFFFFFFFFFFFFFFFFFFFFFFFFFFF AND DUP2 PUSH0 ADD PUSH0 SWAP1 SLOAD SWAP1 PUSH2 0x100 EXP SWAP1 DIV PUSH20 0xFFFFFFFFFFFFFFFFFFFFFFFFFFFFFFFFFFFFFFFF AND PUSH20 0xFFFFFFFFFFFFFFFFFFFFFFFFFFFFFFFFFFFFFFFF AND SUB PUSH2 0x3BA JUMPI PUSH1 0x40 MLOAD PUSH32 0x8C379A000000000000000000000000000000000000000000000000000000000 DUP2 MSTORE PUSH1 0x4 ADD PUSH2 0x3B1 SWAP1 PUSH2 0xD2C JUMP JUMPDEST PUSH1 0x40 MLOAD DUP1 SWAP2 SUB SWAP1 REVERT JUMPDEST PUSH0 DUP3 LT ISZERO PUSH2 0x3FD JUMPI PUSH1 0x40 MLOAD PUSH32 0x8C379A000000000000000000000000000000000000000000000000000000000 DUP2 MSTORE PUSH1 0x4 ADD PUSH2 0x3F4 SWAP1 PUSH2 0xE85 JUMP JUMPDEST PUSH1 0x40 MLOAD DUP1 SWAP2 SUB SWAP1 REVERT JUMPDEST DUP2 DUP2 PUSH1 0x3 ADD DUP2 SWAP1 SSTORE POP DUP3 PUSH20 0xFFFFFFFFFFFFFFFFFFFFFFFFFFFFFFFFFFFFFFFF AND PUSH32 0xA6B582F9FA77F5EB299250871D3B51C8FF3655DD554DA3F9ABB294B3E92F8E1F DUP4 PUSH1 0x40 MLOAD PUSH2 0x44C SWAP2 SWAP1 PUSH2 0xB4C JUMP JUMPDEST PUSH1 0x40 MLOAD DUP1 SWAP2 SUB SWAP1 LOG2 DUP1 PUSH1 0x2 ADD SLOAD DUP2 PUSH1 0x3 ADD SLOAD GT ISZERO PUSH2 0x4B7 JUMPI DUP3 PUSH20 0xFFFFFFFFFFFFFFFFFFFFFFFFFFFFFFFFFFFFFFFF AND PUSH32 0x74B737E83B985A0AFA446389D70CCCAB99D200A0A63101114130A2A2DFBBA912 DUP3 PUSH1 0x3 ADD SLOAD PUSH1 0x40 MLOAD PUSH2 0x4AE SWAP2 SWAP1 PUSH2 0xB4C JUMP JUMPDEST PUSH1 0x40 MLOAD DUP1 SWAP2 SUB SWAP1 LOG2 JUMPDEST POP POP POP JUMP JUMPDEST PUSH0 DUP1 PUSH0 DUP1 DUP5 PUSH20 0xFFFFFFFFFFFFFFFFFFFFFFFFFFFFFFFFFFFFFFFF AND PUSH20 0xFFFFFFFFFFFFFFFFFFFFFFFFFFFFFFFFFFFFFFFF AND DUP2 MSTORE PUSH1 0x20 ADD SWAP1 DUP2 MSTORE PUSH1 0x20 ADD PUSH0 KECCAK256 PUSH1 0x40 MLOAD DUP1 PUSH1 0xE0 ADD PUSH1 0x40 MSTORE SWAP1 DUP2 PUSH0 DUP3 ADD PUSH0 SWAP1 SLOAD SWAP1 PUSH2 0x100 EXP SWAP1 DIV PUSH20 0xFFFFFFFFFFFFFFFFFFFFFFFFFFFFFFFFFFFFFFFF AND PUSH20 0xFFFFFFFFFFFFFFFFFFFFFFFFFFFFFFFFFFFFFFFF AND PUSH20 0xFFFFFFFFFFFFFFFFFFFFFFFFFFFFFFFFFFFFFFFF AND DUP2 MSTORE PUSH1 0x20 ADD PUSH1 0x1 DUP3 ADD SLOAD DUP2 MSTORE PUSH1 0x20 ADD PUSH1 0x2 DUP3 ADD SLOAD DUP2 MSTORE PUSH1 0x20 ADD PUSH1 0x3 DUP3 ADD SLOAD DUP2 MSTORE PUSH1 0x20 ADD PUSH1 0x4 DUP3 ADD SLOAD DUP2 MSTORE PUSH1 0x20 ADD PUSH1 0x5 DUP3 ADD SLOAD DUP2 MSTORE PUSH1 0x20 ADD PUSH1 0x6 DUP3 ADD SLOAD DUP2 MSTORE POP POP SWAP1 POP PUSH0 PUSH20 0xFFFFFFFFFFFFFFFFFFFFFFFFFFFFFFFFFFFFFFFF AND DUP2 PUSH0 ADD MLOAD PUSH20 0xFFFFFFFFFFFFFFFFFFFFFFFFFFFFFFFFFFFFFFFF AND SUB PUSH2 0x608 JUMPI PUSH1 0x40 MLOAD PUSH32 0x8C379A000000000000000000000000000000000000000000000000000000000 DUP2 MSTORE PUSH1 0x4 ADD PUSH2 0x5FF SWAP1 PUSH2 0xD2C JUMP JUMPDEST PUSH1 0x40 MLOAD DUP1 SWAP2 SUB SWAP1 REVERT JUMPDEST PUSH2 0x2710 DUP2 PUSH1 0xC0 ADD MLOAD DUP3 PUSH1 0xA0 ADD MLOAD DUP4 PUSH1 0x60 ADD MLOAD PUSH2 0x624 SWAP2 SWAP1 PUSH2 0xD77 JUMP JUMPDEST PUSH2 0x62E SWAP2 SWAP1 PUSH2 0xD77 JUMP JUMPDEST PUSH2 0x638 SWAP2 SWAP1 PUSH2 0xDE5 JUMP JUMPDEST SWAP2 POP POP SWAP2 SWAP1 POP JUMP JUMPDEST PUSH0 PUSH1 0x20 MSTORE DUP1 PUSH0 MSTORE PUSH1 0x40 PUSH0 KECCAK256 PUSH0 SWAP2 POP SWAP1 POP DUP1 PUSH0 ADD PUSH0 SWAP1 SLOAD SWAP1 PUSH2 0x100 EXP SWAP1 DIV PUSH20 0xFFFFFFFFFFFFFFFFFFFFFFFFFFFFFFFFFFFFFFFF AND SWAP1 DUP1 PUSH1 0x1 ADD SLOAD SWAP1 DUP1 PUSH1 0x2 ADD SLOAD SWAP1 DUP1 PUSH1 0x3 ADD SLOAD SWAP1 DUP1 PUSH1 0x4 ADD SLOAD SWAP1 DUP1 PUSH1 0x5 ADD SLOAD SWAP1 DUP1 PUSH1 0x6 ADD SLOAD SWAP1 POP DUP8 JUMP JUMPDEST PUSH0 DUP1 PUSH0 DUP1 DUP5 PUSH20 0xFFFFFFFFFFFFFFFFFFFFFFFFFFFFFFFFFFFFFFFF AND PUSH20 0xFFFFFFFFFFFFFFFFFFFFFFFFFFFFFFFFFFFFFFFF AND DUP2 MSTORE PUSH1 0x20 ADD SWAP1 DUP2 MSTORE PUSH1 0x20 ADD PUSH0 KECCAK256 PUSH1 0x40 MLOAD DUP1 PUSH1 0xE0 ADD PUSH1 0x40 MSTORE SWAP1 DUP2 PUSH0 DUP3 ADD PUSH0 SWAP1 SLOAD SWAP1 PUSH2 0x100 EXP SWAP1 DIV PUSH20 0xFFFFFFFFFFFFFFFFFFFFFFFFFFFFFFFFFFFFFFFF AND PUSH20 0xFFFFFFFFFFFFFFFFFFFFFFFFFFFFFFFFFFFFFFFF AND PUSH20 0xFFFFFFFFFFFFFFFFFFFFFFFFFFFFFFFFFFFFFFFF AND DUP2 MSTORE PUSH1 0x20 ADD PUSH1 0x1 DUP3 ADD SLOAD DUP2 MSTORE PUSH1 0x20 ADD PUSH1 0x2 DUP3 ADD SLOAD DUP2 MSTORE PUSH1 0x20 ADD PUSH1 0x3 DUP3 ADD SLOAD DUP2 MSTORE PUSH1 0x20 ADD PUSH1 0x4 DUP3 ADD SLOAD DUP2 MSTORE PUSH1 0x20 ADD PUSH1 0x5 DUP3 ADD SLOAD DUP2 MSTORE PUSH1 0x20 ADD PUSH1 0x6 DUP3 ADD SLOAD DUP2 MSTORE POP POP SWAP1 POP PUSH0 PUSH20 0xFFFFFFFFFFFFFFFFFFFFFFFFFFFFFFFFFFFFFFFF AND DUP2 PUSH0 ADD MLOAD PUSH20 0xFFFFFFFFFFFFFFFFFFFFFFFFFFFFFFFFFFFFFFFF AND SUB PUSH2 0x7E8 JUMPI PUSH1 0x40 MLOAD PUSH32 0x8C379A000000000000000000000000000000000000000000000000000000000 DUP2 MSTORE PUSH1 0x4 ADD PUSH2 0x7DF SWAP1 PUSH2 0xD2C JUMP JUMPDEST PUSH1 0x40 MLOAD DUP1 SWAP2 SUB SWAP1 REVERT JUMPDEST PUSH0 DUP2 PUSH1 0x40 ADD MLOAD SUB PUSH2 0x7FC JUMPI PUSH0 SWAP2 POP POP PUSH2 0x830 JUMP JUMPDEST DUP1 PUSH1 0x20 ADD MLOAD DUP2 PUSH1 0x40 ADD MLOAD PUSH2 0x810 SWAP2 SWAP1 PUSH2 0xD77 JUMP JUMPDEST PUSH2 0x2710 DUP3 PUSH1 0x60 ADD MLOAD PUSH2 0x822 SWAP2 SWAP1 PUSH2 0xD77 JUMP JUMPDEST PUSH2 0x82C SWAP2 SWAP1 PUSH2 0xDE5 JUMP JUMPDEST SWAP2 POP POP JUMPDEST SWAP2 SWAP1 POP JUMP JUMPDEST PUSH0 PUSH20 0xFFFFFFFFFFFFFFFFFFFFFFFFFFFFFFFFFFFFFFFF AND PUSH0 DUP1 DUP9 PUSH20 0xFFFFFFFFFFFFFFFFFFFFFFFFFFFFFFFFFFFFFFFF AND PUSH20 0xFFFFFFFFFFFFFFFFFFFFFFFFFFFFFFFFFFFFFFFF AND DUP2 MSTORE PUSH1 0x20 ADD SWAP1 DUP2 MSTORE PUSH1 0x20 ADD PUSH0 KECCAK256 PUSH0 ADD PUSH0 SWAP1 SLOAD SWAP1 PUSH2 0x100 EXP SWAP1 DIV PUSH20 0xFFFFFFFFFFFFFFFFFFFFFFFFFFFFFFFFFFFFFFFF AND PUSH20 0xFFFFFFFFFFFFFFFFFFFFFFFFFFFFFFFFFFFFFFFF AND EQ PUSH2 0x900 JUMPI PUSH1 0x40 MLOAD PUSH32 0x8C379A000000000000000000000000000000000000000000000000000000000 DUP2 MSTORE PUSH1 0x4 ADD PUSH2 0x8F7 SWAP1 PUSH2 0xEED JUMP JUMPDEST PUSH1 0x40 MLOAD DUP1 SWAP2 SUB SWAP1 REVERT JUMPDEST PUSH0 DUP6 GT DUP1 ISZERO PUSH2 0x90E JUMPI POP PUSH0 DUP5 GT JUMPDEST PUSH2 0x94D JUMPI PUSH1 0x40 MLOAD PUSH32 0x8C379A000000000000000000000000000000000000000000000000000000000 DUP2 MSTORE PUSH1 0x4 ADD PUSH2 0x944 SWAP1 PUSH2 0xF7B JUMP JUMPDEST PUSH1 0x40 MLOAD DUP1 SWAP2 SUB SWAP1 REVERT JUMPDEST PUSH1 0x40 MLOAD DUP1 PUSH1 0xE0 ADD PUSH1 0x40 MSTORE DUP1 DUP8 PUSH20 0xFFFFFFFFFFFFFFFFFFFFFFFFFFFFFFFFFFFFFFFF AND DUP2 MSTORE PUSH1 0x20 ADD DUP7 DUP2 MSTORE PUSH1 0x20 ADD DUP6 DUP2 MSTORE PUSH1 0x20 ADD PUSH0 DUP2 MSTORE PUSH1 0x20 ADD DUP3 DUP2 MSTORE PUSH1 0x20 ADD DUP5 DUP2 MSTORE PUSH1 0x20 ADD DUP4 DUP2 MSTORE POP PUSH0 DUP1 DUP9 PUSH20 0xFFFFFFFFFFFFFFFFFFFFFFFFFFFFFFFFFFFFFFFF AND PUSH20 0xFFFFFFFFFFFFFFFFFFFFFFFFFFFFFFFFFFFFFFFF AND DUP2 MSTORE PUSH1 0x20 ADD SWAP1 DUP2 MSTORE PUSH1 0x20 ADD PUSH0 KECCAK256 PUSH0 DUP3 ADD MLOAD DUP2 PUSH0 ADD PUSH0 PUSH2 0x100 EXP DUP2 SLOAD DUP2 PUSH20 0xFFFFFFFFFFFFFFFFFFFFFFFFFFFFFFFFFFFFFFFF MUL NOT AND SWAP1 DUP4 PUSH20 0xFFFFFFFFFFFFFFFFFFFFFFFFFFFFFFFFFFFFFFFF AND MUL OR SWAP1 SSTORE POP PUSH1 0x20 DUP3 ADD MLOAD DUP2 PUSH1 0x1 ADD SSTORE PUSH1 0x40 DUP3 ADD MLOAD DUP2 PUSH1 0x2 ADD SSTORE PUSH1 0x60 DUP3 ADD MLOAD DUP2 PUSH1 0x3 ADD SSTORE PUSH1 0x80 DUP3 ADD MLOAD DUP2 PUSH1 0x4 ADD SSTORE PUSH1 0xA0 DUP3 ADD MLOAD DUP2 PUSH1 0x5 ADD SSTORE PUSH1 0xC0 DUP3 ADD MLOAD DUP2 PUSH1 0x6 ADD SSTORE SWAP1 POP POP DUP6 PUSH20 0xFFFFFFFFFFFFFFFFFFFFFFFFFFFFFFFFFFFFFFFF AND PUSH32 0x747A12C5B34ABE212A3A26B67B9A8EDF3CEB6BD68207C9F6C11A5161432E1614 DUP6 PUSH1 0x40 MLOAD PUSH2 0xA9B SWAP2 SWAP1 PUSH2 0xB4C JUMP JUMPDEST PUSH1 0x40 MLOAD DUP1 SWAP2 SUB SWAP1 LOG2 POP POP POP POP POP POP JUMP JUMPDEST PUSH0 DUP1 REVERT JUMPDEST PUSH0 PUSH20 0xFFFFFFFFFFFFFFFFFFFFFFFFFFFFFFFFFFFFFFFF DUP3 AND SWAP1 POP SWAP2 SWAP1 POP JUMP JUMPDEST PUSH0 PUSH2 0xAD8 DUP3 PUSH2 0xAAF JUMP JUMPDEST SWAP1 POP SWAP2 SWAP1 POP JUMP JUMPDEST PUSH2 0xAE8 DUP2 PUSH2 0xACE JUMP JUMPDEST DUP2 EQ PUSH2 0xAF2 JUMPI PUSH0 DUP1 REVERT JUMPDEST POP JUMP JUMPDEST PUSH0 DUP2 CALLDATALOAD SWAP1 POP PUSH2 0xB03 DUP2 PUSH2 0xADF JUMP JUMPDEST SWAP3 SWAP2 POP POP JUMP JUMPDEST PUSH0 PUSH1 0x20 DUP3 DUP5 SUB SLT ISZERO PUSH2 0xB1E JUMPI PUSH2 0xB1D PUSH2 0xAAB JUMP JUMPDEST JUMPDEST PUSH0 PUSH2 0xB2B DUP5 DUP3 DUP6 ADD PUSH2 0xAF5 JUMP JUMPDEST SWAP2 POP POP SWAP3 SWAP2 POP POP JUMP JUMPDEST PUSH0 DUP2 SWAP1 POP SWAP2 SWAP1 POP JUMP JUMPDEST PUSH2 0xB46 DUP2 PUSH2 0xB34 JUMP JUMPDEST DUP3 MSTORE POP POP JUMP JUMPDEST PUSH0 PUSH1 0x20 DUP3 ADD SWAP1 POP PUSH2 0xB5F PUSH0 DUP4 ADD DUP5 PUSH2 0xB3D JUMP JUMPDEST SWAP3 SWAP2 POP POP JUMP JUMPDEST PUSH2 0xB6E DUP2 PUSH2 0xB34 JUMP JUMPDEST DUP2 EQ PUSH2 0xB78 JUMPI PUSH0 DUP1 REVERT JUMPDEST POP JUMP JUMPDEST PUSH0 DUP2 CALLDATALOAD SWAP1 POP PUSH2 0xB89 DUP2 PUSH2 0xB65 JUMP JUMPDEST SWAP3 SWAP2 POP POP JUMP JUMPDEST PUSH0 DUP1 PUSH1 0x40 DUP4 DUP6 SUB SLT ISZERO PUSH2 0xBA5 JUMPI PUSH2 0xBA4 PUSH2 0xAAB JUMP JUMPDEST JUMPDEST PUSH0 PUSH2 0xBB2 DUP6 DUP3 DUP7 ADD PUSH2 0xAF5 JUMP JUMPDEST SWAP3 POP POP PUSH1 0x20 PUSH2 0xBC3 DUP6 DUP3 DUP7 ADD PUSH2 0xB7B JUMP JUMPDEST SWAP2 POP POP SWAP3 POP SWAP3 SWAP1 POP JUMP JUMPDEST PUSH2 0xBD6 DUP2 PUSH2 0xACE JUMP JUMPDEST DUP3 MSTORE POP POP JUMP JUMPDEST PUSH0 PUSH1 0xE0 DUP3 ADD SWAP1 POP PUSH2 0xBEF PUSH0 DUP4 ADD DUP11 PUSH2 0xBCD JUMP JUMPDEST PUSH2 0xBFC PUSH1 0x20 DUP4 ADD DUP10 PUSH2 0xB3D JUMP JUMPDEST PUSH2 0xC09 PUSH1 0x40 DUP4 ADD DUP9 PUSH2 0xB3D JUMP JUMPDEST PUSH2 0xC16 PUSH1 0x60 DUP4 ADD DUP8 PUSH2 0xB3D JUMP JUMPDEST PUSH2 0xC23 PUSH1 0x80 DUP4 ADD DUP7 PUSH2 0xB3D JUMP JUMPDEST PUSH2 0xC30 PUSH1 0xA0 DUP4 ADD DUP6 PUSH2 0xB3D JUMP JUMPDEST PUSH2 0xC3D PUSH1 0xC0 DUP4 ADD DUP5 PUSH2 0xB3D JUMP JUMPDEST SWAP9 SWAP8 POP POP POP POP POP POP POP POP JUMP JUMPDEST PUSH0 DUP1 PUSH0 DUP1 PUSH0 DUP1 PUSH1 0xC0 DUP8 DUP10 SUB SLT ISZERO PUSH2 0xC63 JUMPI PUSH2 0xC62 PUSH2 0xAAB JUMP JUMPDEST JUMPDEST PUSH0 PUSH2 0xC70 DUP10 DUP3 DUP11 ADD PUSH2 0xAF5 JUMP JUMPDEST SWAP7 POP POP PUSH1 0x20 PUSH2 0xC81 DUP10 DUP3 DUP11 ADD PUSH2 0xB7B JUMP JUMPDEST SWAP6 POP POP PUSH1 0x40 PUSH2 0xC92 DUP10 DUP3 DUP11 ADD PUSH2 0xB7B JUMP JUMPDEST SWAP5 POP POP PUSH1 0x60 PUSH2 0xCA3 DUP10 DUP3 DUP11 ADD PUSH2 0xB7B JUMP JUMPDEST SWAP4 POP POP PUSH1 0x80 PUSH2 0xCB4 DUP10 DUP3 DUP11 ADD PUSH2 0xB7B JUMP JUMPDEST SWAP3 POP POP PUSH1 0xA0 PUSH2 0xCC5 DUP10 DUP3 DUP11 ADD PUSH2 0xB7B JUMP JUMPDEST SWAP2 POP POP SWAP3 SWAP6 POP SWAP3 SWAP6 POP SWAP3 SWAP6 JUMP JUMPDEST PUSH0 DUP3 DUP3 MSTORE PUSH1 0x20 DUP3 ADD SWAP1 POP SWAP3 SWAP2 POP POP JUMP JUMPDEST PUSH32 0x436F6E747265706172746965206E6F6E2074726F757665650000000000000000 PUSH0 DUP3 ADD MSTORE POP JUMP JUMPDEST PUSH0 PUSH2 0xD16 PUSH1 0x18 DUP4 PUSH2 0xCD2 JUMP JUMPDEST SWAP2 POP PUSH2 0xD21 DUP3 PUSH2 0xCE2 JUMP JUMPDEST PUSH1 0x20 DUP3 ADD SWAP1 POP SWAP2 SWAP1 POP JUMP JUMPDEST PUSH0 PUSH1 0x20 DUP3 ADD SWAP1 POP DUP2 DUP2 SUB PUSH0 DUP4 ADD MSTORE PUSH2 0xD43 DUP2 PUSH2 0xD0A JUMP JUMPDEST SWAP1 POP SWAP2 SWAP1 POP JUMP JUMPDEST PUSH32 0x4E487B7100000000000000000000000000000000000000000000000000000000 PUSH0 MSTORE PUSH1 0x11 PUSH1 0x4 MSTORE PUSH1 0x24 PUSH0 REVERT JUMPDEST PUSH0 PUSH2 0xD81 DUP3 PUSH2 0xB34 JUMP JUMPDEST SWAP2 POP PUSH2 0xD8C DUP4 PUSH2 0xB34 JUMP JUMPDEST SWAP3 POP DUP3 DUP3 MUL PUSH2 0xD9A DUP2 PUSH2 0xB34 JUMP JUMPDEST SWAP2 POP DUP3 DUP3 DIV DUP5 EQ DUP4 ISZERO OR PUSH2 0xDB1 JUMPI PUSH2 0xDB0 PUSH2 0xD4A JUMP JUMPDEST JUMPDEST POP SWAP3 SWAP2 POP POP JUMP JUMPDEST PUSH32 0x4E487B7100000000000000000000000000000000000000000000000000000000 PUSH0 MSTORE PUSH1 0x12 PUSH1 0x4 MSTORE PUSH1 0x24 PUSH0 REVERT JUMPDEST PUSH0 PUSH2 0xDEF DUP3 PUSH2 0xB34 JUMP JUMPDEST SWAP2 POP PUSH2 0xDFA DUP4 PUSH2 0xB34 JUMP JUMPDEST SWAP3 POP DUP3 PUSH2 0xE0A JUMPI PUSH2 0xE09 PUSH2 0xDB8 JUMP JUMPDEST JUMPDEST DUP3 DUP3 DIV SWAP1 POP SWAP3 SWAP2 POP POP JUMP JUMPDEST PUSH32 0x4578706F736974696F6E206E652070657574207061732065747265206E656761 PUSH0 DUP3 ADD MSTORE PUSH32 0x7469766500000000000000000000000000000000000000000000000000000000 PUSH1 0x20 DUP3 ADD MSTORE POP JUMP JUMPDEST PUSH0 PUSH2 0xE6F PUSH1 0x24 DUP4 PUSH2 0xCD2 JUMP JUMPDEST SWAP2 POP PUSH2 0xE7A DUP3 PUSH2 0xE15 JUMP JUMPDEST PUSH1 0x40 DUP3 ADD SWAP1 POP SWAP2 SWAP1 POP JUMP JUMPDEST PUSH0 PUSH1 0x20 DUP3 ADD SWAP1 POP DUP2 DUP2 SUB PUSH0 DUP4 ADD MSTORE PUSH2 0xE9C DUP2 PUSH2 0xE63 JUMP JUMPDEST SWAP1 POP SWAP2 SWAP1 POP JUMP JUMPDEST PUSH32 0x436F6E7472657061727469652064656A6120656E726567697374726565000000 PUSH0 DUP3 ADD MSTORE POP JUMP JUMPDEST PUSH0 PUSH2 0xED7 PUSH1 0x1D DUP4 PUSH2 0xCD2 JUMP JUMPDEST SWAP2 POP PUSH2 0xEE2 DUP3 PUSH2 0xEA3 JUMP JUMPDEST PUSH1 0x20 DUP3 ADD SWAP1 POP SWAP2 SWAP1 POP JUMP JUMPDEST PUSH0 PUSH1 0x20 DUP3 ADD SWAP1 POP DUP2 DUP2 SUB PUSH0 DUP4 ADD MSTORE PUSH2 0xF04 DUP2 PUSH2 0xECB JUMP JUMPDEST SWAP1 POP SWAP2 SWAP1 POP JUMP JUMPDEST PUSH32 0x53636F726520646520637265646974206574206C696D69746520646F6976656E PUSH0 DUP3 ADD MSTORE PUSH32 0x74206574726520706F7369746966730000000000000000000000000000000000 PUSH1 0x20 DUP3 ADD MSTORE POP JUMP JUMPDEST PUSH0 PUSH2 0xF65 PUSH1 0x2F DUP4 PUSH2 0xCD2 JUMP JUMPDEST SWAP2 POP PUSH2 0xF70 DUP3 PUSH2 0xF0B JUMP JUMPDEST PUSH1 0x40 DUP3 ADD SWAP1 POP SWAP2 SWAP1 POP JUMP JUMPDEST PUSH0 PUSH1 0x20 DUP3 ADD SWAP1 POP DUP2 DUP2 SUB PUSH0 DUP4 ADD MSTORE PUSH2 0xF92 DUP2 PUSH2 0xF59 JUMP JUMPDEST SWAP1 POP SWAP2 SWAP1 POP JUMP INVALID LOG2 PUSH5 0x6970667358 0x22 SLT KECCAK256 DUP11 PUSH6 0xAD235CFC711B 0xA5 SWAP5 DUP1 0xD2 0xB2 0xCB GASLIMIT BLOCKHASH 0xB5 PUSH27 0x4A25C71AD0296D8DD1F26D46D86364736F6C634300081A00330000 "
		},
		"gasEstimates": {
			"creation": {
				"codeDepositCost": "809400",
				"executionCost": "842",
				"totalCost": "810242"
			},
			"external": {
				"ajouterContrepartie(address,uint256,uint256,uint256,uint256,uint256)": "infinite",
				"calculerPertesAttendues(address)": "infinite",
				"calculerRatioCouverture(address)": "infinite",
				"calculerRisque(address)": "infinite",
				"contreparties(address)": "infinite",
				"mettreAJourExposition(address,uint256)": "infinite"
			}
		},
		"methodIdentifiers": {
			"ajouterContrepartie(address,uint256,uint256,uint256,uint256,uint256)": "c8cdac5c",
			"calculerPertesAttendues(address)": "2d83e6b1",
			"calculerRatioCouverture(address)": "0aae162e",
			"calculerRisque(address)": "8e068eb0",
			"contreparties(address)": "760b1eee",
			"mettreAJourExposition(address,uint256)": "1922701e"
		}
	},
	"abi": [
		{
			"anonymous": false,
			"inputs": [
				{
					"indexed": true,
					"internalType": "address",
					"name": "portefeuille",
					"type": "address"
				},
				{
					"indexed": false,
					"internalType": "uint256",
					"name": "limiteExposition",
					"type": "uint256"
				}
			],
			"name": "ContrepartieAjoutee",
			"type": "event"
		},
		{
			"anonymous": false,
			"inputs": [
				{
					"indexed": true,
					"internalType": "address",
					"name": "portefeuille",
					"type": "address"
				},
				{
					"indexed": false,
					"internalType": "uint256",
					"name": "nouvelleExposition",
					"type": "uint256"
				}
			],
			"name": "ExpositionMiseAJour",
			"type": "event"
		},
		{
			"anonymous": false,
			"inputs": [
				{
					"indexed": true,
					"internalType": "address",
					"name": "portefeuille",
					"type": "address"
				},
				{
					"indexed": false,
					"internalType": "uint256",
					"name": "exposition",
					"type": "uint256"
				}
			],
			"name": "LimiteDepassee",
			"type": "event"
		},
		{
			"inputs": [
				{
					"internalType": "address",
					"name": "_portefeuille",
					"type": "address"
				},
				{
					"internalType": "uint256",
					"name": "_scoreCredit",
					"type": "uint256"
				},
				{
					"internalType": "uint256",
					"name": "_limiteExposition",
					"type": "uint256"
				},
				{
					"internalType": "uint256",
					"name": "_probabiliteDefaut",
					"type": "uint256"
				},
				{
					"internalType": "uint256",
					"name": "_pertesEnCasDeDefaut",
					"type": "uint256"
				},
				{
					"internalType": "uint256",
					"name": "_collaterale",
					"type": "uint256"
				}
			],
			"name": "ajouterContrepartie",
			"outputs": [],
			"stateMutability": "nonpayable",
			"type": "function"
		},
		{
			"inputs": [
				{
					"internalType": "address",
					"name": "_portefeuille",
					"type": "address"
				}
			],
			"name": "calculerPertesAttendues",
			"outputs": [
				{
					"internalType": "uint256",
					"name": "",
					"type": "uint256"
				}
			],
			"stateMutability": "view",
			"type": "function"
		},
		{
			"inputs": [
				{
					"internalType": "address",
					"name": "_portefeuille",
					"type": "address"
				}
			],
			"name": "calculerRatioCouverture",
			"outputs": [
				{
					"internalType": "uint256",
					"name": "",
					"type": "uint256"
				}
			],
			"stateMutability": "view",
			"type": "function"
		},
		{
			"inputs": [
				{
					"internalType": "address",
					"name": "_portefeuille",
					"type": "address"
				}
			],
			"name": "calculerRisque",
			"outputs": [
				{
					"internalType": "uint256",
					"name": "",
					"type": "uint256"
				}
			],
			"stateMutability": "view",
			"type": "function"
		},
		{
			"inputs": [
				{
					"internalType": "address",
					"name": "",
					"type": "address"
				}
			],
			"name": "contreparties",
			"outputs": [
				{
					"internalType": "address",
					"name": "portefeuille",
					"type": "address"
				},
				{
					"internalType": "uint256",
					"name": "scoreCredit",
					"type": "uint256"
				},
				{
					"internalType": "uint256",
					"name": "limiteExposition",
					"type": "uint256"
				},
				{
					"internalType": "uint256",
					"name": "expositionCourante",
					"type": "uint256"
				},
				{
					"internalType": "uint256",
					"name": "collaterale",
					"type": "uint256"
				},
				{
					"internalType": "uint256",
					"name": "probabiliteDefaut",
					"type": "uint256"
				},
				{
					"internalType": "uint256",
					"name": "pertesEnCasDeDefaut",
					"type": "uint256"
				}
			],
			"stateMutability": "view",
			"type": "function"
		},
		{
			"inputs": [
				{
					"internalType": "address",
					"name": "_portefeuille",
					"type": "address"
				},
				{
					"internalType": "uint256",
					"name": "_nouvelleExposition",
					"type": "uint256"
				}
			],
			"name": "mettreAJourExposition",
			"outputs": [],
			"stateMutability": "nonpayable",
			"type": "function"
		}
	]
}